{
  "_format": "hh-sol-artifact-1",
  "contractName": "AntToken",
  "sourceName": "contracts/MoonToken.sol",
  "abi": [
    {
      "inputs": [],
      "stateMutability": "nonpayable",
      "type": "constructor"
    },
    {
      "inputs": [],
      "name": "AntToken_OnlyControllersCanMint",
      "type": "error"
    },
    {
      "anonymous": false,
      "inputs": [
        {
          "indexed": true,
          "internalType": "address",
          "name": "owner",
          "type": "address"
        },
        {
          "indexed": true,
          "internalType": "address",
          "name": "spender",
          "type": "address"
        },
        {
          "indexed": false,
          "internalType": "uint256",
          "name": "value",
          "type": "uint256"
        }
      ],
      "name": "Approval",
      "type": "event"
    },
    {
      "anonymous": false,
      "inputs": [
        {
          "indexed": true,
          "internalType": "address",
          "name": "previousOwner",
          "type": "address"
        },
        {
          "indexed": true,
          "internalType": "address",
          "name": "newOwner",
          "type": "address"
        }
      ],
      "name": "OwnershipTransferred",
      "type": "event"
    },
    {
      "anonymous": false,
      "inputs": [
        {
          "indexed": true,
          "internalType": "address",
          "name": "from",
          "type": "address"
        },
        {
          "indexed": true,
          "internalType": "address",
          "name": "to",
          "type": "address"
        },
        {
          "indexed": false,
          "internalType": "uint256",
          "name": "value",
          "type": "uint256"
        }
      ],
      "name": "Transfer",
      "type": "event"
    },
    {
      "inputs": [
        {
          "internalType": "address",
          "name": "owner",
          "type": "address"
        },
        {
          "internalType": "address",
          "name": "spender",
          "type": "address"
        }
      ],
      "name": "allowance",
      "outputs": [
        {
          "internalType": "uint256",
          "name": "",
          "type": "uint256"
        }
      ],
      "stateMutability": "view",
      "type": "function"
    },
    {
      "inputs": [
        {
          "internalType": "address",
          "name": "spender",
          "type": "address"
        },
        {
          "internalType": "uint256",
          "name": "amount",
          "type": "uint256"
        }
      ],
      "name": "approve",
      "outputs": [
        {
          "internalType": "bool",
          "name": "",
          "type": "bool"
        }
      ],
      "stateMutability": "nonpayable",
      "type": "function"
    },
    {
      "inputs": [
        {
          "internalType": "address",
          "name": "account",
          "type": "address"
        }
      ],
      "name": "balanceOf",
      "outputs": [
        {
          "internalType": "uint256",
          "name": "",
          "type": "uint256"
        }
      ],
      "stateMutability": "view",
      "type": "function"
    },
    {
      "inputs": [
        {
          "internalType": "uint256",
          "name": "amount",
          "type": "uint256"
        }
      ],
      "name": "burn",
      "outputs": [],
      "stateMutability": "nonpayable",
      "type": "function"
    },
    {
      "inputs": [
        {
          "internalType": "address",
          "name": "account",
          "type": "address"
        },
        {
          "internalType": "uint256",
          "name": "amount",
          "type": "uint256"
        }
      ],
      "name": "burnFrom",
      "outputs": [],
      "stateMutability": "nonpayable",
      "type": "function"
    },
    {
      "inputs": [],
      "name": "decimals",
      "outputs": [
        {
          "internalType": "uint8",
          "name": "",
          "type": "uint8"
        }
      ],
      "stateMutability": "view",
      "type": "function"
    },
    {
      "inputs": [
        {
          "internalType": "address",
          "name": "spender",
          "type": "address"
        },
        {
          "internalType": "uint256",
          "name": "subtractedValue",
          "type": "uint256"
        }
      ],
      "name": "decreaseAllowance",
      "outputs": [
        {
          "internalType": "bool",
          "name": "",
          "type": "bool"
        }
      ],
      "stateMutability": "nonpayable",
      "type": "function"
    },
    {
      "inputs": [
        {
          "internalType": "address",
          "name": "spender",
          "type": "address"
        },
        {
          "internalType": "uint256",
          "name": "addedValue",
          "type": "uint256"
        }
      ],
      "name": "increaseAllowance",
      "outputs": [
        {
          "internalType": "bool",
          "name": "",
          "type": "bool"
        }
      ],
      "stateMutability": "nonpayable",
      "type": "function"
    },
    {
      "inputs": [
        {
          "internalType": "address",
          "name": "to",
          "type": "address"
        },
        {
          "internalType": "uint256",
          "name": "amount",
          "type": "uint256"
        }
      ],
      "name": "mint",
      "outputs": [],
      "stateMutability": "nonpayable",
      "type": "function"
    },
    {
      "inputs": [],
      "name": "name",
      "outputs": [
        {
          "internalType": "string",
          "name": "",
          "type": "string"
        }
      ],
      "stateMutability": "view",
      "type": "function"
    },
    {
      "inputs": [],
      "name": "owner",
      "outputs": [
        {
          "internalType": "address",
          "name": "",
          "type": "address"
        }
      ],
      "stateMutability": "view",
      "type": "function"
    },
    {
      "inputs": [],
      "name": "renounceOwnership",
      "outputs": [],
      "stateMutability": "nonpayable",
      "type": "function"
    },
    {
      "inputs": [
        {
          "internalType": "address",
          "name": "controller",
          "type": "address"
        },
        {
          "internalType": "bool",
          "name": "_state",
          "type": "bool"
        }
      ],
      "name": "setController",
      "outputs": [],
      "stateMutability": "payable",
      "type": "function"
    },
    {
      "inputs": [],
      "name": "symbol",
      "outputs": [
        {
          "internalType": "string",
          "name": "",
          "type": "string"
        }
      ],
      "stateMutability": "view",
      "type": "function"
    },
    {
      "inputs": [],
      "name": "totalSupply",
      "outputs": [
        {
          "internalType": "uint256",
          "name": "",
          "type": "uint256"
        }
      ],
      "stateMutability": "view",
      "type": "function"
    },
    {
      "inputs": [
        {
          "internalType": "address",
          "name": "to",
          "type": "address"
        },
        {
          "internalType": "uint256",
          "name": "amount",
          "type": "uint256"
        }
      ],
      "name": "transfer",
      "outputs": [
        {
          "internalType": "bool",
          "name": "",
          "type": "bool"
        }
      ],
      "stateMutability": "nonpayable",
      "type": "function"
    },
    {
      "inputs": [
        {
          "internalType": "address",
          "name": "from",
          "type": "address"
        },
        {
          "internalType": "address",
          "name": "to",
          "type": "address"
        },
        {
          "internalType": "uint256",
          "name": "amount",
          "type": "uint256"
        }
      ],
      "name": "transferFrom",
      "outputs": [
        {
          "internalType": "bool",
          "name": "",
          "type": "bool"
        }
      ],
      "stateMutability": "nonpayable",
      "type": "function"
    },
    {
      "inputs": [
        {
          "internalType": "address",
          "name": "newOwner",
          "type": "address"
        }
      ],
      "name": "transferOwnership",
      "outputs": [],
      "stateMutability": "nonpayable",
      "type": "function"
    }
  ],
  "bytecode": "0x60806040523480156200001157600080fd5b506040518060400160405280600e81526020017f4d7920466972737420546f6b656e0000000000000000000000000000000000008152506040518060400160405280600381526020017f4146540000000000000000000000000000000000000000000000000000000000815250816003908051906020019062000096929190620001a6565b508060049080519060200190620000af929190620001a6565b505050620000d2620000c6620000d860201b60201c565b620000e060201b60201c565b620002bb565b600033905090565b6000600560009054906101000a900473ffffffffffffffffffffffffffffffffffffffff16905081600560006101000a81548173ffffffffffffffffffffffffffffffffffffffff021916908373ffffffffffffffffffffffffffffffffffffffff1602179055508173ffffffffffffffffffffffffffffffffffffffff168173ffffffffffffffffffffffffffffffffffffffff167f8be0079c531659141344cd1fd0a4f28419497f9722a3daafe3b4186f6b6457e060405160405180910390a35050565b828054620001b49062000256565b90600052602060002090601f016020900481019282620001d8576000855562000224565b82601f10620001f357805160ff191683800117855562000224565b8280016001018555821562000224579182015b828111156200022357825182559160200191906001019062000206565b5b50905062000233919062000237565b5090565b5b808211156200025257600081600090555060010162000238565b5090565b600060028204905060018216806200026f57607f821691505b602082108114156200028657620002856200028c565b5b50919050565b7f4e487b7100000000000000000000000000000000000000000000000000000000600052602260045260246000fd5b611ee380620002cb6000396000f3fe6080604052600436106101095760003560e01c8063715018a611610095578063a457c2d711610064578063a457c2d71461036b578063a9059cbb146103a8578063dd62ed3e146103e5578063e0dba60f14610422578063f2fde38b1461043e57610109565b8063715018a6146102d557806379cc6790146102ec5780638da5cb5b1461031557806395d89b411461034057610109565b8063313ce567116100dc578063313ce567146101de578063395093511461020957806340c10f191461024657806342966c681461026f57806370a082311461029857610109565b806306fdde031461010e578063095ea7b31461013957806318160ddd1461017657806323b872dd146101a1575b600080fd5b34801561011a57600080fd5b50610123610467565b6040516101309190611765565b60405180910390f35b34801561014557600080fd5b50610160600480360381019061015b9190611486565b6104f9565b60405161016d919061174a565b60405180910390f35b34801561018257600080fd5b5061018b61051c565b6040516101989190611927565b60405180910390f35b3480156101ad57600080fd5b506101c860048036038101906101c391906113f3565b610526565b6040516101d5919061174a565b60405180910390f35b3480156101ea57600080fd5b506101f3610555565b6040516102009190611942565b60405180910390f35b34801561021557600080fd5b50610230600480360381019061022b9190611486565b61055e565b60405161023d919061174a565b60405180910390f35b34801561025257600080fd5b5061026d60048036038101906102689190611486565b610595565b005b34801561027b57600080fd5b50610296600480360381019061029191906114c6565b61062f565b005b3480156102a457600080fd5b506102bf60048036038101906102ba9190611386565b610643565b6040516102cc9190611927565b60405180910390f35b3480156102e157600080fd5b506102ea61068b565b005b3480156102f857600080fd5b50610313600480360381019061030e9190611486565b61069f565b005b34801561032157600080fd5b5061032a610739565b604051610337919061172f565b60405180910390f35b34801561034c57600080fd5b50610355610763565b6040516103629190611765565b60405180910390f35b34801561037757600080fd5b50610392600480360381019061038d9190611486565b6107f5565b60405161039f919061174a565b60405180910390f35b3480156103b457600080fd5b506103cf60048036038101906103ca9190611486565b61086c565b6040516103dc919061174a565b60405180910390f35b3480156103f157600080fd5b5061040c600480360381019061040791906113b3565b61088f565b6040516104199190611927565b60405180910390f35b61043c60048036038101906104379190611446565b610916565b005b34801561044a57600080fd5b5061046560048036038101906104609190611386565b610979565b005b60606003805461047690611a57565b80601f01602080910402602001604051908101604052809291908181526020018280546104a290611a57565b80156104ef5780601f106104c4576101008083540402835291602001916104ef565b820191906000526020600020905b8154815290600101906020018083116104d257829003601f168201915b5050505050905090565b6000806105046109fd565b9050610511818585610a05565b600191505092915050565b6000600254905090565b6000806105316109fd565b905061053e858285610bd0565b610549858585610c5c565b60019150509392505050565b60006012905090565b6000806105696109fd565b905061058a81858561057b858961088f565b6105859190611979565b610a05565b600191505092915050565b600660003373ffffffffffffffffffffffffffffffffffffffff1673ffffffffffffffffffffffffffffffffffffffff16815260200190815260200160002060009054906101000a900460ff16610621576040517f08c379a000000000000000000000000000000000000000000000000000000000815260040161061890611867565b60405180910390fd5b61062b8282610ed4565b5050565b61064061063a6109fd565b8261102b565b50565b60008060008373ffffffffffffffffffffffffffffffffffffffff1673ffffffffffffffffffffffffffffffffffffffff168152602001908152602001600020549050919050565b6106936111f9565b61069d6000611277565b565b600660003373ffffffffffffffffffffffffffffffffffffffff1673ffffffffffffffffffffffffffffffffffffffff16815260200190815260200160002060009054906101000a900460ff1661072b576040517f08c379a000000000000000000000000000000000000000000000000000000000815260040161072290611867565b60405180910390fd5b610735828261102b565b5050565b6000600560009054906101000a900473ffffffffffffffffffffffffffffffffffffffff16905090565b60606004805461077290611a57565b80601f016020809104026020016040519081016040528092919081815260200182805461079e90611a57565b80156107eb5780601f106107c0576101008083540402835291602001916107eb565b820191906000526020600020905b8154815290600101906020018083116107ce57829003601f168201915b5050505050905090565b6000806108006109fd565b9050600061080e828661088f565b905083811015610853576040517f08c379a000000000000000000000000000000000000000000000000000000000815260040161084a906118e7565b60405180910390fd5b6108608286868403610a05565b60019250505092915050565b6000806108776109fd565b9050610884818585610c5c565b600191505092915050565b6000600160008473ffffffffffffffffffffffffffffffffffffffff1673ffffffffffffffffffffffffffffffffffffffff16815260200190815260200160002060008373ffffffffffffffffffffffffffffffffffffffff1673ffffffffffffffffffffffffffffffffffffffff16815260200190815260200160002054905092915050565b61091e6111f9565b80600660008473ffffffffffffffffffffffffffffffffffffffff1673ffffffffffffffffffffffffffffffffffffffff16815260200190815260200160002060006101000a81548160ff0219169083151502179055505050565b6109816111f9565b600073ffffffffffffffffffffffffffffffffffffffff168173ffffffffffffffffffffffffffffffffffffffff1614156109f1576040517f08c379a00000000000000000000000000000000000000000000000000000000081526004016109e8906117c7565b60405180910390fd5b6109fa81611277565b50565b600033905090565b600073ffffffffffffffffffffffffffffffffffffffff168373ffffffffffffffffffffffffffffffffffffffff161415610a75576040517f08c379a0000000000000000000000000000000000000000000000000000000008152600401610a6c906118c7565b60405180910390fd5b600073ffffffffffffffffffffffffffffffffffffffff168273ffffffffffffffffffffffffffffffffffffffff161415610ae5576040517f08c379a0000000000000000000000000000000000000000000000000000000008152600401610adc906117e7565b60405180910390fd5b80600160008573ffffffffffffffffffffffffffffffffffffffff1673ffffffffffffffffffffffffffffffffffffffff16815260200190815260200160002060008473ffffffffffffffffffffffffffffffffffffffff1673ffffffffffffffffffffffffffffffffffffffff168152602001908152602001600020819055508173ffffffffffffffffffffffffffffffffffffffff168373ffffffffffffffffffffffffffffffffffffffff167f8c5be1e5ebec7d5bd14f71427d1e84f3dd0314c0f7b2291e5b200ac8c7c3b92583604051610bc39190611927565b60405180910390a3505050565b6000610bdc848461088f565b90507fffffffffffffffffffffffffffffffffffffffffffffffffffffffffffffffff8114610c565781811015610c48576040517f08c379a0000000000000000000000000000000000000000000000000000000008152600401610c3f90611807565b60405180910390fd5b610c558484848403610a05565b5b50505050565b600073ffffffffffffffffffffffffffffffffffffffff168373ffffffffffffffffffffffffffffffffffffffff161415610ccc576040517f08c379a0000000000000000000000000000000000000000000000000000000008152600401610cc3906118a7565b60405180910390fd5b600073ffffffffffffffffffffffffffffffffffffffff168273ffffffffffffffffffffffffffffffffffffffff161415610d3c576040517f08c379a0000000000000000000000000000000000000000000000000000000008152600401610d3390611787565b60405180910390fd5b610d4783838361133d565b60008060008573ffffffffffffffffffffffffffffffffffffffff1673ffffffffffffffffffffffffffffffffffffffff16815260200190815260200160002054905081811015610dcd576040517f08c379a0000000000000000000000000000000000000000000000000000000008152600401610dc490611827565b60405180910390fd5b8181036000808673ffffffffffffffffffffffffffffffffffffffff1673ffffffffffffffffffffffffffffffffffffffff16815260200190815260200160002081905550816000808573ffffffffffffffffffffffffffffffffffffffff1673ffffffffffffffffffffffffffffffffffffffff168152602001908152602001600020600082825401925050819055508273ffffffffffffffffffffffffffffffffffffffff168473ffffffffffffffffffffffffffffffffffffffff167fddf252ad1be2c89b69c2b068fc378daa952ba7f163c4a11628f55a4df523b3ef84604051610ebb9190611927565b60405180910390a3610ece848484611342565b50505050565b600073ffffffffffffffffffffffffffffffffffffffff168273ffffffffffffffffffffffffffffffffffffffff161415610f44576040517f08c379a0000000000000000000000000000000000000000000000000000000008152600401610f3b90611907565b60405180910390fd5b610f506000838361133d565b8060026000828254610f629190611979565b92505081905550806000808473ffffffffffffffffffffffffffffffffffffffff1673ffffffffffffffffffffffffffffffffffffffff168152602001908152602001600020600082825401925050819055508173ffffffffffffffffffffffffffffffffffffffff16600073ffffffffffffffffffffffffffffffffffffffff167fddf252ad1be2c89b69c2b068fc378daa952ba7f163c4a11628f55a4df523b3ef836040516110139190611927565b60405180910390a361102760008383611342565b5050565b600073ffffffffffffffffffffffffffffffffffffffff168273ffffffffffffffffffffffffffffffffffffffff16141561109b576040517f08c379a000000000000000000000000000000000000000000000000000000000815260040161109290611887565b60405180910390fd5b6110a78260008361133d565b60008060008473ffffffffffffffffffffffffffffffffffffffff1673ffffffffffffffffffffffffffffffffffffffff1681526020019081526020016000205490508181101561112d576040517f08c379a0000000000000000000000000000000000000000000000000000000008152600401611124906117a7565b60405180910390fd5b8181036000808573ffffffffffffffffffffffffffffffffffffffff1673ffffffffffffffffffffffffffffffffffffffff1681526020019081526020016000208190555081600260008282540392505081905550600073ffffffffffffffffffffffffffffffffffffffff168373ffffffffffffffffffffffffffffffffffffffff167fddf252ad1be2c89b69c2b068fc378daa952ba7f163c4a11628f55a4df523b3ef846040516111e09190611927565b60405180910390a36111f483600084611342565b505050565b6112016109fd565b73ffffffffffffffffffffffffffffffffffffffff1661121f610739565b73ffffffffffffffffffffffffffffffffffffffff1614611275576040517f08c379a000000000000000000000000000000000000000000000000000000000815260040161126c90611847565b60405180910390fd5b565b6000600560009054906101000a900473ffffffffffffffffffffffffffffffffffffffff16905081600560006101000a81548173ffffffffffffffffffffffffffffffffffffffff021916908373ffffffffffffffffffffffffffffffffffffffff1602179055508173ffffffffffffffffffffffffffffffffffffffff168173ffffffffffffffffffffffffffffffffffffffff167f8be0079c531659141344cd1fd0a4f28419497f9722a3daafe3b4186f6b6457e060405160405180910390a35050565b505050565b505050565b60008135905061135681611e68565b92915050565b60008135905061136b81611e7f565b92915050565b60008135905061138081611e96565b92915050565b60006020828403121561139c5761139b611ae7565b5b60006113aa84828501611347565b91505092915050565b600080604083850312156113ca576113c9611ae7565b5b60006113d885828601611347565b92505060206113e985828601611347565b9150509250929050565b60008060006060848603121561140c5761140b611ae7565b5b600061141a86828701611347565b935050602061142b86828701611347565b925050604061143c86828701611371565b9150509250925092565b6000806040838503121561145d5761145c611ae7565b5b600061146b85828601611347565b925050602061147c8582860161135c565b9150509250929050565b6000806040838503121561149d5761149c611ae7565b5b60006114ab85828601611347565b92505060206114bc85828601611371565b9150509250929050565b6000602082840312156114dc576114db611ae7565b5b60006114ea84828501611371565b91505092915050565b6114fc816119cf565b82525050565b61150b816119e1565b82525050565b600061151c8261195d565b6115268185611968565b9350611536818560208601611a24565b61153f81611aec565b840191505092915050565b6000611557602383611968565b915061156282611afd565b604082019050919050565b600061157a602283611968565b915061158582611b4c565b604082019050919050565b600061159d602683611968565b91506115a882611b9b565b604082019050919050565b60006115c0602283611968565b91506115cb82611bea565b604082019050919050565b60006115e3601d83611968565b91506115ee82611c39565b602082019050919050565b6000611606602683611968565b915061161182611c62565b604082019050919050565b6000611629602083611968565b915061163482611cb1565b602082019050919050565b600061164c601783611968565b915061165782611cda565b602082019050919050565b600061166f602183611968565b915061167a82611d03565b604082019050919050565b6000611692602583611968565b915061169d82611d52565b604082019050919050565b60006116b5602483611968565b91506116c082611da1565b604082019050919050565b60006116d8602583611968565b91506116e382611df0565b604082019050919050565b60006116fb601f83611968565b915061170682611e3f565b602082019050919050565b61171a81611a0d565b82525050565b61172981611a17565b82525050565b600060208201905061174460008301846114f3565b92915050565b600060208201905061175f6000830184611502565b92915050565b6000602082019050818103600083015261177f8184611511565b905092915050565b600060208201905081810360008301526117a08161154a565b9050919050565b600060208201905081810360008301526117c08161156d565b9050919050565b600060208201905081810360008301526117e081611590565b9050919050565b60006020820190508181036000830152611800816115b3565b9050919050565b60006020820190508181036000830152611820816115d6565b9050919050565b60006020820190508181036000830152611840816115f9565b9050919050565b600060208201905081810360008301526118608161161c565b9050919050565b600060208201905081810360008301526118808161163f565b9050919050565b600060208201905081810360008301526118a081611662565b9050919050565b600060208201905081810360008301526118c081611685565b9050919050565b600060208201905081810360008301526118e0816116a8565b9050919050565b60006020820190508181036000830152611900816116cb565b9050919050565b60006020820190508181036000830152611920816116ee565b9050919050565b600060208201905061193c6000830184611711565b92915050565b60006020820190506119576000830184611720565b92915050565b600081519050919050565b600082825260208201905092915050565b600061198482611a0d565b915061198f83611a0d565b9250827fffffffffffffffffffffffffffffffffffffffffffffffffffffffffffffffff038211156119c4576119c3611a89565b5b828201905092915050565b60006119da826119ed565b9050919050565b60008115159050919050565b600073ffffffffffffffffffffffffffffffffffffffff82169050919050565b6000819050919050565b600060ff82169050919050565b60005b83811015611a42578082015181840152602081019050611a27565b83811115611a51576000848401525b50505050565b60006002820490506001821680611a6f57607f821691505b60208210811415611a8357611a82611ab8565b5b50919050565b7f4e487b7100000000000000000000000000000000000000000000000000000000600052601160045260246000fd5b7f4e487b7100000000000000000000000000000000000000000000000000000000600052602260045260246000fd5b600080fd5b6000601f19601f8301169050919050565b7f45524332303a207472616e7366657220746f20746865207a65726f206164647260008201527f6573730000000000000000000000000000000000000000000000000000000000602082015250565b7f45524332303a206275726e20616d6f756e7420657863656564732062616c616e60008201527f6365000000000000000000000000000000000000000000000000000000000000602082015250565b7f4f776e61626c653a206e6577206f776e657220697320746865207a65726f206160008201527f6464726573730000000000000000000000000000000000000000000000000000602082015250565b7f45524332303a20617070726f766520746f20746865207a65726f20616464726560008201527f7373000000000000000000000000000000000000000000000000000000000000602082015250565b7f45524332303a20696e73756666696369656e7420616c6c6f77616e6365000000600082015250565b7f45524332303a207472616e7366657220616d6f756e742065786365656473206260008201527f616c616e63650000000000000000000000000000000000000000000000000000602082015250565b7f4f776e61626c653a2063616c6c6572206973206e6f7420746865206f776e6572600082015250565b7f4e6f7420617574686f72697a6564206164647265737321000000000000000000600082015250565b7f45524332303a206275726e2066726f6d20746865207a65726f2061646472657360008201527f7300000000000000000000000000000000000000000000000000000000000000602082015250565b7f45524332303a207472616e736665722066726f6d20746865207a65726f20616460008201527f6472657373000000000000000000000000000000000000000000000000000000602082015250565b7f45524332303a20617070726f76652066726f6d20746865207a65726f2061646460008201527f7265737300000000000000000000000000000000000000000000000000000000602082015250565b7f45524332303a2064656372656173656420616c6c6f77616e63652062656c6f7760008201527f207a65726f000000000000000000000000000000000000000000000000000000602082015250565b7f45524332303a206d696e7420746f20746865207a65726f206164647265737300600082015250565b611e71816119cf565b8114611e7c57600080fd5b50565b611e88816119e1565b8114611e9357600080fd5b50565b611e9f81611a0d565b8114611eaa57600080fd5b5056fea26469706673582212202f5dfb30af736e4ecfe2a831c7b2376535e0b79eeea46f768e20757712475e8364736f6c63430008070033",
  "linkReferences": {},
  "deployedLinkReferences": {}
}