{
  "_format": "hh-sol-artifact-1",
  "contractName": "NFTStaking",
  "sourceName": "contracts/NFTStaking.sol",
  "abi": [
    {
      "inputs": [
        {
          "internalType": "address",
          "name": "_nftAddress",
          "type": "address"
        },
        {
          "internalType": "address",
          "name": "_tokenAddress",
          "type": "address"
        }
      ],
      "stateMutability": "nonpayable",
      "type": "constructor"
    },
    {
      "inputs": [],
      "name": "NFTStaking__ItemAlreadyStaked",
      "type": "error"
    },
    {
      "inputs": [],
      "name": "NFTStaking__NotItemOwner",
      "type": "error"
    },
    {
      "anonymous": false,
      "inputs": [
        {
          "indexed": false,
          "internalType": "address",
          "name": "owner",
          "type": "address"
        },
        {
          "indexed": false,
          "internalType": "uint256",
          "name": "reward",
          "type": "uint256"
        }
      ],
      "name": "Claimed",
      "type": "event"
    },
    {
      "anonymous": false,
      "inputs": [
        {
          "indexed": false,
          "internalType": "uint256[]",
          "name": "tokenId",
          "type": "uint256[]"
        },
        {
          "indexed": false,
          "internalType": "address",
          "name": "owner",
          "type": "address"
        }
      ],
      "name": "ItemsStaked",
      "type": "event"
    },
    {
      "anonymous": false,
      "inputs": [
        {
          "indexed": false,
          "internalType": "uint256[]",
          "name": "tokenIds",
          "type": "uint256[]"
        },
        {
          "indexed": false,
          "internalType": "address",
          "name": "owner",
          "type": "address"
        }
      ],
      "name": "ItemsUnStaked",
      "type": "event"
    },
    {
      "inputs": [
        {
          "internalType": "address",
          "name": "user",
          "type": "address"
        }
      ],
      "name": "balanceOf",
      "outputs": [
        {
          "internalType": "uint256",
          "name": "nftStakedBalance",
          "type": "uint256"
        }
      ],
      "stateMutability": "view",
      "type": "function"
    },
    {
      "inputs": [
        {
          "internalType": "uint256[]",
          "name": "tokenIds",
          "type": "uint256[]"
        }
      ],
      "name": "claim",
      "outputs": [],
      "stateMutability": "nonpayable",
      "type": "function"
    },
    {
      "inputs": [
        {
          "internalType": "uint256",
          "name": "stakingPeriod",
          "type": "uint256"
        }
      ],
      "name": "getDailyReward",
      "outputs": [
        {
          "internalType": "uint256",
          "name": "dailyReward",
          "type": "uint256"
        }
      ],
      "stateMutability": "pure",
      "type": "function"
    },
    {
      "inputs": [
        {
          "internalType": "address",
          "name": "user",
          "type": "address"
        }
      ],
      "name": "getTotalRewardEarned",
      "outputs": [
        {
          "internalType": "uint256",
          "name": "rewardEarned",
          "type": "uint256"
        }
      ],
      "stateMutability": "view",
      "type": "function"
    },
    {
      "inputs": [
        {
          "internalType": "address",
          "name": "",
          "type": "address"
        },
        {
          "internalType": "address",
          "name": "",
          "type": "address"
        },
        {
          "internalType": "uint256",
          "name": "",
          "type": "uint256"
        },
        {
          "internalType": "bytes",
          "name": "",
          "type": "bytes"
        }
      ],
      "name": "onERC721Received",
      "outputs": [
        {
          "internalType": "bytes4",
          "name": "",
          "type": "bytes4"
        }
      ],
      "stateMutability": "pure",
      "type": "function"
    },
    {
      "inputs": [
        {
          "internalType": "uint256[]",
          "name": "tokenIds",
          "type": "uint256[]"
        }
      ],
      "name": "stake",
      "outputs": [],
      "stateMutability": "nonpayable",
      "type": "function"
    },
    {
      "inputs": [
        {
          "internalType": "address",
          "name": "user",
          "type": "address"
        }
      ],
      "name": "tokensOfOwner",
      "outputs": [
        {
          "internalType": "uint256[]",
          "name": "tokens",
          "type": "uint256[]"
        }
      ],
      "stateMutability": "view",
      "type": "function"
    },
    {
      "inputs": [],
      "name": "totalItemStaked",
      "outputs": [
        {
          "internalType": "uint256",
          "name": "",
          "type": "uint256"
        }
      ],
      "stateMutability": "view",
      "type": "function"
    },
    {
      "inputs": [
        {
          "internalType": "uint256[]",
          "name": "tokenIds",
          "type": "uint256[]"
        }
      ],
      "name": "unstake",
      "outputs": [],
      "stateMutability": "nonpayable",
      "type": "function"
    }
  ],
  "bytecode": "0x60c06040523480156200001157600080fd5b506040516200189c3803806200189c8339818101604052810190620000379190620000c4565b8173ffffffffffffffffffffffffffffffffffffffff1660a08173ffffffffffffffffffffffffffffffffffffffff1660601b815250508073ffffffffffffffffffffffffffffffffffffffff1660808173ffffffffffffffffffffffffffffffffffffffff1660601b8152505050506200015e565b600081519050620000be8162000144565b92915050565b60008060408385031215620000de57620000dd6200013f565b5b6000620000ee85828601620000ad565b92505060206200010185828601620000ad565b9150509250929050565b600062000118826200011f565b9050919050565b600073ffffffffffffffffffffffffffffffffffffffff82169050919050565b600080fd5b6200014f816200010b565b81146200015b57600080fd5b50565b60805160601c60a05160601c6116f6620001a6600039600081816102e0015281816103d601528181610610015281816107600152610e0201526000610b7a01526116f66000f3fe608060405234801561001057600080fd5b50600436106100935760003560e01c806370a082311161006657806370a08231146101305780638462151c1461016057806385df177514610190578063d88d2000146101ae578063e449f341146101de57610093565b80630fbf0a9314610098578063150b7a02146100b4578063454938e0146100e45780636ba4c13814610114575b600080fd5b6100b260048036038101906100ad91906110d7565b6101fa565b005b6100ce60048036038101906100c9919061104f565b610589565b6040516100db9190611363565b60405180910390f35b6100fe60048036038101906100f99190610ff5565b61059e565b60405161010b919061139e565b60405180910390f35b61012e600480360381019061012991906110d7565b6105fa565b005b61014a60048036038101906101459190610ff5565b61060b565b604051610157919061139e565b60405180910390f35b61017a60048036038101906101759190610ff5565b61073e565b6040516101879190611341565b60405180910390f35b610198610910565b6040516101a5919061139e565b60405180910390f35b6101c860048036038101906101c39190611124565b610916565b6040516101d5919061139e565b60405180910390f35b6101f860048036038101906101f391906110d7565b610928565b005b600082829050905060005b81811015610530576000848483818110610222576102216115ed565b5b905060200201359050600073ffffffffffffffffffffffffffffffffffffffff166001600083815260200190815260200160002060000160009054906101000a900473ffffffffffffffffffffffffffffffffffffffff1673ffffffffffffffffffffffffffffffffffffffff16146102c7576040517f3cdebb2b00000000000000000000000000000000000000000000000000000000815260040160405180910390fd5b3373ffffffffffffffffffffffffffffffffffffffff167f000000000000000000000000000000000000000000000000000000000000000073ffffffffffffffffffffffffffffffffffffffff16636352211e836040518263ffffffff1660e01b8152600401610337919061139e565b60206040518083038186803b15801561034f57600080fd5b505afa158015610363573d6000803e3d6000fd5b505050506040513d601f19601f820116820180604052508101906103879190611022565b73ffffffffffffffffffffffffffffffffffffffff16146103d4576040517f094f9e0700000000000000000000000000000000000000000000000000000000815260040160405180910390fd5b7f000000000000000000000000000000000000000000000000000000000000000073ffffffffffffffffffffffffffffffffffffffff166342842e0e3330846040518463ffffffff1660e01b8152600401610431939291906112af565b600060405180830381600087803b15801561044b57600080fd5b505af115801561045f573d6000803e3d6000fd5b5050505060405180604001604052803373ffffffffffffffffffffffffffffffffffffffff1681526020014267ffffffffffffffff168152506001600083815260200190815260200160002060008201518160000160006101000a81548173ffffffffffffffffffffffffffffffffffffffff021916908373ffffffffffffffffffffffffffffffffffffffff16021790555060208201518160000160146101000a81548167ffffffffffffffff021916908367ffffffffffffffff16021790555090505081600101915050610205565b50806000808282546105429190611403565b925050819055507f05be9727e5f8ef44e5ef226f3d7f8c202aad4325901b4639a0f27f39d7cdccfb83833360405161057c9392919061130f565b60405180910390a1505050565b600063150b7a0260e01b905095945050505050565b6000806105aa8361073e565b905060005b81518110156105f3576105db8282815181106105ce576105cd6115ed565b5b6020026020010151610939565b836105e69190611403565b92508060010190506105af565b5050919050565b61060733838360006109c7565b5050565b6000807f000000000000000000000000000000000000000000000000000000000000000073ffffffffffffffffffffffffffffffffffffffff166318160ddd6040518163ffffffff1660e01b815260040160206040518083038186803b15801561067457600080fd5b505afa158015610688573d6000803e3d6000fd5b505050506040513d601f19601f820116820180604052508101906106ac9190611151565b905060005b81811015610737578373ffffffffffffffffffffffffffffffffffffffff166001600083815260200190815260200160002060000160009054906101000a900473ffffffffffffffffffffffffffffffffffffffff1673ffffffffffffffffffffffffffffffffffffffff16141561072a576001830192505b80806001019150506106b1565b5050919050565b6060600061074b8361060b565b9050600081141561075c575061090b565b60007f000000000000000000000000000000000000000000000000000000000000000073ffffffffffffffffffffffffffffffffffffffff166318160ddd6040518163ffffffff1660e01b815260040160206040518083038186803b1580156107c457600080fd5b505afa1580156107d8573d6000803e3d6000fd5b505050506040513d601f19601f820116820180604052508101906107fc9190611151565b90508167ffffffffffffffff8111156108185761081761161c565b5b6040519080825280602002602001820160405280156108465781602001602082028036833780820191505090505b5092506000805b82811015610906578573ffffffffffffffffffffffffffffffffffffffff166001600083815260200190815260200160002060000160009054906101000a900473ffffffffffffffffffffffffffffffffffffffff1673ffffffffffffffffffffffffffffffffffffffff1614156108f957808583815181106108d3576108d26115ed565b5b6020026020010181815250508180600101925050838214156108f8575050505061090b565b5b808060010191505061084d565b505050505b919050565b60005481565b600061092182610c5a565b9050919050565b61093533838360016109c7565b5050565b6000806001600084815260200190815260200160002060000160149054906101000a900467ffffffffffffffff1667ffffffffffffffff1690506000814261098191906114e4565b9050600061098e82610c5a565b905062015180670de0b6b3a764000083836109a9919061148a565b6109b3919061148a565b6109bd9190611459565b9350505050919050565b600080600085859050905060005b81811015610b6f578686828181106109f0576109ef6115ed565b5b9050602002013593508773ffffffffffffffffffffffffffffffffffffffff166001600086815260200190815260200160002060000160009054906101000a900473ffffffffffffffffffffffffffffffffffffffff1673ffffffffffffffffffffffffffffffffffffffff1614610a94576040517f094f9e0700000000000000000000000000000000000000000000000000000000815260040160405180910390fd5b60006001600086815260200190815260200160002060000160149054906101000a900467ffffffffffffffff1667ffffffffffffffff16905060008142610adb91906114e4565b90506000610ae882610c5a565b905062015180670de0b6b3a76400008383610b03919061148a565b610b0d919061148a565b610b179190611459565b86610b229190611403565b9550426001600089815260200190815260200160002060000160146101000a81548167ffffffffffffffff021916908367ffffffffffffffff1602179055508360010193505050506109d5565b5060008214610c3f577f000000000000000000000000000000000000000000000000000000000000000073ffffffffffffffffffffffffffffffffffffffff166340c10f1988846040518363ffffffff1660e01b8152600401610bd39291906112e6565b600060405180830381600087803b158015610bed57600080fd5b505af1158015610c01573d6000803e3d6000fd5b505050507fd8138f8a3f377c5259ca548e70e4c2de94f129f5a11036a15b69513cba2b426a8783604051610c369291906112e6565b60405180910390a15b8315610c5157610c50878787610cd3565b5b50505050505050565b600062278d008211610c6f5760019050610cce565b62278d006003610c7f919061148a565b821015610c8f5760029050610ccd565b62278d006006610c9f919061148a565b821015610caf5760049050610ccc565b62278d006006610cbf919061148a565b821115610ccb57600890505b5b5b5b919050565b600082829050905060005b81811015610e9b576000848483818110610cfb57610cfa6115ed565b5b9050602002013590508573ffffffffffffffffffffffffffffffffffffffff166001600083815260200190815260200160002060000160009054906101000a900473ffffffffffffffffffffffffffffffffffffffff1673ffffffffffffffffffffffffffffffffffffffff1614610da8576040517f08c379a0000000000000000000000000000000000000000000000000000000008152600401610d9f9061137e565b60405180910390fd5b60016000828152602001908152602001600020600080820160006101000a81549073ffffffffffffffffffffffffffffffffffffffff02191690556000820160146101000a81549067ffffffffffffffff021916905550507f000000000000000000000000000000000000000000000000000000000000000073ffffffffffffffffffffffffffffffffffffffff166342842e0e3088846040518463ffffffff1660e01b8152600401610e5d939291906112af565b600060405180830381600087803b158015610e7757600080fd5b505af1158015610e8b573d6000803e3d6000fd5b5050505081600101915050610cde565b5080600080828254610ead91906114e4565b925050819055507f0954f3746b5b7f4125002dc7d37a67e75aff6aafab048c627b99182b93cb51cf838386604051610ee79392919061130f565b60405180910390a150505050565b600081359050610f0481611692565b92915050565b600081519050610f1981611692565b92915050565b60008083601f840112610f3557610f34611650565b5b8235905067ffffffffffffffff811115610f5257610f5161164b565b5b602083019150836020820283011115610f6e57610f6d611655565b5b9250929050565b60008083601f840112610f8b57610f8a611650565b5b8235905067ffffffffffffffff811115610fa857610fa761164b565b5b602083019150836001820283011115610fc457610fc3611655565b5b9250929050565b600081359050610fda816116a9565b92915050565b600081519050610fef816116a9565b92915050565b60006020828403121561100b5761100a611664565b5b600061101984828501610ef5565b91505092915050565b60006020828403121561103857611037611664565b5b600061104684828501610f0a565b91505092915050565b60008060008060006080868803121561106b5761106a611664565b5b600061107988828901610ef5565b955050602061108a88828901610ef5565b945050604061109b88828901610fcb565b935050606086013567ffffffffffffffff8111156110bc576110bb61165a565b5b6110c888828901610f75565b92509250509295509295909350565b600080602083850312156110ee576110ed611664565b5b600083013567ffffffffffffffff81111561110c5761110b61165a565b5b61111885828601610f1f565b92509250509250929050565b60006020828403121561113a57611139611664565b5b600061114884828501610fcb565b91505092915050565b60006020828403121561116757611166611664565b5b600061117584828501610fe0565b91505092915050565b600061118a8383611291565b60208301905092915050565b61119f81611518565b82525050565b60006111b183856113e1565b93507f07ffffffffffffffffffffffffffffffffffffffffffffffffffffffffffffff8311156111e4576111e361165f565b5b6020830292506111f5838584611580565b82840190509392505050565b600061120c826113c9565b61121681856113e1565b9350611221836113b9565b8060005b83811015611252578151611239888261117e565b9750611244836113d4565b925050600181019050611225565b5085935050505092915050565b6112688161152a565b82525050565b600061127b6009836113f2565b915061128682611669565b602082019050919050565b61129a81611576565b82525050565b6112a981611576565b82525050565b60006060820190506112c46000830186611196565b6112d16020830185611196565b6112de60408301846112a0565b949350505050565b60006040820190506112fb6000830185611196565b61130860208301846112a0565b9392505050565b6000604082019050818103600083015261132a8185876111a5565b90506113396020830184611196565b949350505050565b6000602082019050818103600083015261135b8184611201565b905092915050565b6000602082019050611378600083018461125f565b92915050565b600060208201905081810360008301526113978161126e565b9050919050565b60006020820190506113b360008301846112a0565b92915050565b6000819050602082019050919050565b600081519050919050565b6000602082019050919050565b600082825260208201905092915050565b600082825260208201905092915050565b600061140e82611576565b915061141983611576565b9250827fffffffffffffffffffffffffffffffffffffffffffffffffffffffffffffffff0382111561144e5761144d61158f565b5b828201905092915050565b600061146482611576565b915061146f83611576565b92508261147f5761147e6115be565b5b828204905092915050565b600061149582611576565b91506114a083611576565b9250817fffffffffffffffffffffffffffffffffffffffffffffffffffffffffffffffff04831182151516156114d9576114d861158f565b5b828202905092915050565b60006114ef82611576565b91506114fa83611576565b92508282101561150d5761150c61158f565b5b828203905092915050565b600061152382611556565b9050919050565b60007fffffffff0000000000000000000000000000000000000000000000000000000082169050919050565b600073ffffffffffffffffffffffffffffffffffffffff82169050919050565b6000819050919050565b82818337600083830152505050565b7f4e487b7100000000000000000000000000000000000000000000000000000000600052601160045260246000fd5b7f4e487b7100000000000000000000000000000000000000000000000000000000600052601260045260246000fd5b7f4e487b7100000000000000000000000000000000000000000000000000000000600052603260045260246000fd5b7f4e487b7100000000000000000000000000000000000000000000000000000000600052604160045260246000fd5b600080fd5b600080fd5b600080fd5b600080fd5b600080fd5b600080fd5b7f4e6f74204f776e65720000000000000000000000000000000000000000000000600082015250565b61169b81611518565b81146116a657600080fd5b50565b6116b281611576565b81146116bd57600080fd5b5056fea2646970667358221220a35425434fe4c16ee8932207e2cadefc19896cd28f6551f5fac76a3c664d9dce64736f6c63430008070033",
  "linkReferences": {},
  "deployedLinkReferences": {}
}